{
  "transactions": [
    {
      "hash": "0x697e27cf9bdd19a4ad9f736c86c51dddefd1e90dfffe40738fb5629cadb40b8c",
      "transactionType": "CALL",
      "contractName": null,
      "contractAddress": "0x779877a7b0d9e8603169ddbd7836e478b4624789",
      "function": "transferAndCall(address,uint256,bytes)",
      "arguments": [
        "0x9DdfaCa8183c41ad55329BdeeD9F6A8d53168B1B",
        "3000000000000000000",
        "0xdae7483f4b891f74a40f2edf02cb280921a86bdfec763ebe815605a1752bab8f"
      ],
      "transaction": {
        "from": "0x0e6a032ed498633a1fb24b3fa96bf99bbbe4b754",
        "to": "0x779877a7b0d9e8603169ddbd7836e478b4624789",
        "gas": "0x1c1ff",
        "value": "0x0",
        "input": "0x4000aea00000000000000000000000009ddfaca8183c41ad55329bdeed9f6a8d53168b1b00000000000000000000000000000000000000000000000029a2241af62c000000000000000000000000000000000000000000000000000000000000000000600000000000000000000000000000000000000000000000000000000000000020dae7483f4b891f74a40f2edf02cb280921a86bdfec763ebe815605a1752bab8f",
        "nonce": "0x8",
        "chainId": "0xaa36a7"
      },
      "additionalContracts": [],
      "isFixedGasLimit": false
    }
  ],
  "receipts": [
    {
      "status": "0x1",
      "cumulativeGasUsed": "0x170f8a9",
      "logs": [
        {
          "address": "0x779877a7b0d9e8603169ddbd7836e478b4624789",
          "topics": [
            "0xddf252ad1be2c89b69c2b068fc378daa952ba7f163c4a11628f55a4df523b3ef",
            "0x0000000000000000000000000e6a032ed498633a1fb24b3fa96bf99bbbe4b754",
            "0x0000000000000000000000009ddfaca8183c41ad55329bdeed9f6a8d53168b1b"
          ],
          "data": "0x00000000000000000000000000000000000000000000000029a2241af62c0000",
          "blockHash": "0x7d4a4facad27ed71b8a3cb453b853fb5ef540c01cafc4c0cb4ee950064f51eec",
          "blockNumber": "0x8e1224",
          "blockTimestamp": "0x68db7918",
          "transactionHash": "0x697e27cf9bdd19a4ad9f736c86c51dddefd1e90dfffe40738fb5629cadb40b8c",
          "transactionIndex": "0x4d",
          "logIndex": "0x81",
          "removed": false
        },
        {
          "address": "0x779877a7b0d9e8603169ddbd7836e478b4624789",
          "topics": [
            "0xe19260aff97b920c7df27010903aeb9c8d2be5d310a2c67824cf3f15396e4c16",
            "0x0000000000000000000000000e6a032ed498633a1fb24b3fa96bf99bbbe4b754",
            "0x0000000000000000000000009ddfaca8183c41ad55329bdeed9f6a8d53168b1b"
          ],
          "data": "0x00000000000000000000000000000000000000000000000029a2241af62c000000000000000000000000000000000000000000000000000000000000000000400000000000000000000000000000000000000000000000000000000000000020dae7483f4b891f74a40f2edf02cb280921a86bdfec763ebe815605a1752bab8f",
          "blockHash": "0x7d4a4facad27ed71b8a3cb453b853fb5ef540c01cafc4c0cb4ee950064f51eec",
          "blockNumber": "0x8e1224",
          "blockTimestamp": "0x68db7918",
          "transactionHash": "0x697e27cf9bdd19a4ad9f736c86c51dddefd1e90dfffe40738fb5629cadb40b8c",
          "transactionIndex": "0x4d",
          "logIndex": "0x82",
          "removed": false
        },
        {
          "address": "0x9ddfaca8183c41ad55329bdeed9f6a8d53168b1b",
          "topics": [
            "0x1ced9348ff549fceab2ac57cd3a9de38edaaab274b725ee82c23e8fc8c4eec7a",
            "0xdae7483f4b891f74a40f2edf02cb280921a86bdfec763ebe815605a1752bab8f"
          ],
          "data": "0x000000000000000000000000000000000000000000000000000000000000000000000000000000000000000000000000000000000000000029a2241af62c0000",
          "blockHash": "0x7d4a4facad27ed71b8a3cb453b853fb5ef540c01cafc4c0cb4ee950064f51eec",
          "blockNumber": "0x8e1224",
          "blockTimestamp": "0x68db7918",
          "transactionHash": "0x697e27cf9bdd19a4ad9f736c86c51dddefd1e90dfffe40738fb5629cadb40b8c",
          "transactionIndex": "0x4d",
          "logIndex": "0x83",
          "removed": false
        }
      ],
      "logsBloom": "0x00000004000020000000000000000000000000000020000000000000020000000000000000000000000000000000000000000000000000000000000000000000000000000000000000000008000000000000000000000000040020000020000008000000000000000000000000000000000000000000000400000010000040000000000000000000000000010000800000000020000000000001000000000000000000000000000000000000010000000000000000000002000004000000000000000002000000000000000000000000000000000000000100000000000000000010000000000000800000000000000000000000000000000000000100000000",
      "type": "0x2",
      "transactionHash": "0x697e27cf9bdd19a4ad9f736c86c51dddefd1e90dfffe40738fb5629cadb40b8c",
      "transactionIndex": "0x4d",
      "blockHash": "0x7d4a4facad27ed71b8a3cb453b853fb5ef540c01cafc4c0cb4ee950064f51eec",
      "blockNumber": "0x8e1224",
      "gasUsed": "0x133b1",
      "effectiveGasPrice": "0xf4255",
      "from": "0x0e6a032ed498633a1fb24b3fa96bf99bbbe4b754",
      "to": "0x779877a7b0d9e8603169ddbd7836e478b4624789",
      "contractAddress": null
    }
  ],
  "libraries": [],
  "pending": [],
  "returns": {},
  "timestamp": 1759213849602,
  "chain": 11155111,
  "commit": null
}